{
  "_format": "hh-sol-artifact-1",
  "contractName": "Database",
  "sourceName": "blockchain/contracts/Database.sol",
  "abi": [
    {
      "inputs": [],
      "stateMutability": "nonpayable",
      "type": "constructor"
    },
    {
      "inputs": [
        {
          "internalType": "address",
          "name": "_address",
          "type": "address"
        },
        {
          "internalType": "string",
          "name": "_name",
          "type": "string"
        },
        {
          "internalType": "string",
          "name": "_uid",
          "type": "string"
        },
        {
          "internalType": "string",
          "name": "_officialEmail",
          "type": "string"
        },
        {
          "internalType": "string",
          "name": "_phoneNumber",
          "type": "string"
        },
        {
          "internalType": "string",
          "name": "_whatsappNumber",
          "type": "string"
        }
      ],
      "name": "delegateEnrollMember",
      "outputs": [],
      "stateMutability": "nonpayable",
      "type": "function"
    },
    {
      "inputs": [
        {
          "internalType": "string",
          "name": "_name",
          "type": "string"
        },
        {
          "internalType": "string",
          "name": "_uid",
          "type": "string"
        },
        {
          "internalType": "string",
          "name": "_officialEmail",
          "type": "string"
        },
        {
          "internalType": "string",
          "name": "_phoneNumber",
          "type": "string"
        },
        {
          "internalType": "string",
          "name": "_whatsappNumber",
          "type": "string"
        }
      ],
      "name": "enrollMember",
      "outputs": [],
      "stateMutability": "nonpayable",
      "type": "function"
    },
    {
      "inputs": [],
      "name": "getAllMembers",
      "outputs": [
        {
          "components": [
            {
              "internalType": "uint256",
              "name": "index",
              "type": "uint256"
            },
            {
              "internalType": "address",
              "name": "walletAddress",
              "type": "address"
            },
            {
              "internalType": "string",
              "name": "name",
              "type": "string"
            },
            {
              "internalType": "string",
              "name": "uid",
              "type": "string"
            },
            {
              "internalType": "string",
              "name": "officialEmail",
              "type": "string"
            },
            {
              "internalType": "string",
              "name": "phoneNumber",
              "type": "string"
            },
            {
              "internalType": "string",
              "name": "whatsappNumber",
              "type": "string"
            }
          ],
          "internalType": "struct Database.MemberProfile[]",
          "name": "",
          "type": "tuple[]"
        }
      ],
      "stateMutability": "view",
      "type": "function"
    }
  ],
  "bytecode": "0x608060405234801561001057600080fd5b5060016000819055506001600360003373ffffffffffffffffffffffffffffffffffffffff1673ffffffffffffffffffffffffffffffffffffffff16815260200190815260200160002060006101000a81548160ff021916908315150217905550611416806100806000396000f3fe608060405234801561001057600080fd5b50600436106100415760003560e01c8063431f23cb146100465780637c0f6b3514610062578063f65496d014610080575b600080fd5b610060600480360381019061005b9190610d34565b61009c565b005b61006a6104e1565b6040516100779190611130565b60405180910390f35b61009a60048036038101906100959190610e4d565b61087a565b005b8a600260008273ffffffffffffffffffffffffffffffffffffffff1673ffffffffffffffffffffffffffffffffffffffff16815260200190815260200160002060009054906101000a900460ff161561012a576040517f08c379a000000000000000000000000000000000000000000000000000000000815260040161012190611172565b60405180910390fd5b600360003373ffffffffffffffffffffffffffffffffffffffff1673ffffffffffffffffffffffffffffffffffffffff16815260200190815260200160002060009054906101000a900460ff166101b6576040517f08c379a00000000000000000000000000000000000000000000000000000000081526004016101ad90611152565b60405180910390fd5b6001600260008e73ffffffffffffffffffffffffffffffffffffffff1673ffffffffffffffffffffffffffffffffffffffff16815260200190815260200160002060006101000a81548160ff02191690831515021790555060016040518060e0016040528060005481526020018e73ffffffffffffffffffffffffffffffffffffffff1681526020018d8d8080601f016020809104026020016040519081016040528093929190818152602001838380828437600081840152601f19601f8201169050808301925050505050505081526020018b8b8080601f016020809104026020016040519081016040528093929190818152602001838380828437600081840152601f19601f82011690508083019250505050505050815260200189898080601f016020809104026020016040519081016040528093929190818152602001838380828437600081840152601f19601f82011690508083019250505050505050815260200187878080601f016020809104026020016040519081016040528093929190818152602001838380828437600081840152601f19601f82011690508083019250505050505050815260200185858080601f016020809104026020016040519081016040528093929190818152602001838380828437600081840152601f19601f8201169050808301925050505050505081525090806001815401808255809150506001900390600052602060002090600702016000909190919091506000820151816000015560208201518160010160006101000a81548173ffffffffffffffffffffffffffffffffffffffff021916908373ffffffffffffffffffffffffffffffffffffffff1602179055506040820151816002019080519060200190610445929190610c32565b506060820151816003019080519060200190610462929190610c32565b50608082015181600401908051906020019061047f929190610c32565b5060a082015181600501908051906020019061049c929190610c32565b5060c08201518160060190805190602001906104b9929190610c32565b5050506000808154809291906104ce90611299565b9190505550505050505050505050505050565b60606001805480602002602001604051908101604052809291908181526020016000905b8282101561087157838290600052602060002090600702016040518060e0016040529081600082015481526020016001820160009054906101000a900473ffffffffffffffffffffffffffffffffffffffff1673ffffffffffffffffffffffffffffffffffffffff1673ffffffffffffffffffffffffffffffffffffffff16815260200160028201805461059890611267565b80601f01602080910402602001604051908101604052809291908181526020018280546105c490611267565b80156106115780601f106105e657610100808354040283529160200191610611565b820191906000526020600020905b8154815290600101906020018083116105f457829003601f168201915b5050505050815260200160038201805461062a90611267565b80601f016020809104026020016040519081016040528092919081815260200182805461065690611267565b80156106a35780601f10610678576101008083540402835291602001916106a3565b820191906000526020600020905b81548152906001019060200180831161068657829003601f168201915b505050505081526020016004820180546106bc90611267565b80601f01602080910402602001604051908101604052809291908181526020018280546106e890611267565b80156107355780601f1061070a57610100808354040283529160200191610735565b820191906000526020600020905b81548152906001019060200180831161071857829003601f168201915b5050505050815260200160058201805461074e90611267565b80601f016020809104026020016040519081016040528092919081815260200182805461077a90611267565b80156107c75780601f1061079c576101008083540402835291602001916107c7565b820191906000526020600020905b8154815290600101906020018083116107aa57829003601f168201915b505050505081526020016006820180546107e090611267565b80601f016020809104026020016040519081016040528092919081815260200182805461080c90611267565b80156108595780601f1061082e57610100808354040283529160200191610859565b820191906000526020600020905b81548152906001019060200180831161083c57829003601f168201915b50505050508152505081526020019060010190610505565b50505050905090565b33600260008273ffffffffffffffffffffffffffffffffffffffff1673ffffffffffffffffffffffffffffffffffffffff16815260200190815260200160002060009054906101000a900460ff1615610908576040517f08c379a00000000000000000000000000000000000000000000000000000000081526004016108ff90611172565b60405180910390fd5b6001600260003373ffffffffffffffffffffffffffffffffffffffff1673ffffffffffffffffffffffffffffffffffffffff16815260200190815260200160002060006101000a81548160ff02191690831515021790555060016040518060e0016040528060005481526020013373ffffffffffffffffffffffffffffffffffffffff1681526020018d8d8080601f016020809104026020016040519081016040528093929190818152602001838380828437600081840152601f19601f8201169050808301925050505050505081526020018b8b8080601f016020809104026020016040519081016040528093929190818152602001838380828437600081840152601f19601f82011690508083019250505050505050815260200189898080601f016020809104026020016040519081016040528093929190818152602001838380828437600081840152601f19601f82011690508083019250505050505050815260200187878080601f016020809104026020016040519081016040528093929190818152602001838380828437600081840152601f19601f82011690508083019250505050505050815260200185858080601f016020809104026020016040519081016040528093929190818152602001838380828437600081840152601f19601f8201169050808301925050505050505081525090806001815401808255809150506001900390600052602060002090600702016000909190919091506000820151816000015560208201518160010160006101000a81548173ffffffffffffffffffffffffffffffffffffffff021916908373ffffffffffffffffffffffffffffffffffffffff1602179055506040820151816002019080519060200190610b97929190610c32565b506060820151816003019080519060200190610bb4929190610c32565b506080820151816004019080519060200190610bd1929190610c32565b5060a0820151816005019080519060200190610bee929190610c32565b5060c0820151816006019080519060200190610c0b929190610c32565b505050600080815480929190610c2090611299565b91905055505050505050505050505050565b828054610c3e90611267565b90600052602060002090601f016020900481019282610c605760008555610ca7565b82601f10610c7957805160ff1916838001178555610ca7565b82800160010185558215610ca7579182015b82811115610ca6578251825591602001919060010190610c8b565b5b509050610cb49190610cb8565b5090565b5b80821115610cd1576000816000905550600101610cb9565b5090565b600081359050610ce4816113c9565b92915050565b60008083601f840112610cfc57600080fd5b8235905067ffffffffffffffff811115610d1557600080fd5b602083019150836001820283011115610d2d57600080fd5b9250929050565b600080600080600080600080600080600060c08c8e031215610d5557600080fd5b6000610d638e828f01610cd5565b9b505060208c013567ffffffffffffffff811115610d8057600080fd5b610d8c8e828f01610cea565b9a509a505060408c013567ffffffffffffffff811115610dab57600080fd5b610db78e828f01610cea565b985098505060608c013567ffffffffffffffff811115610dd657600080fd5b610de28e828f01610cea565b965096505060808c013567ffffffffffffffff811115610e0157600080fd5b610e0d8e828f01610cea565b945094505060a08c013567ffffffffffffffff811115610e2c57600080fd5b610e388e828f01610cea565b92509250509295989b509295989b9093969950565b60008060008060008060008060008060a08b8d031215610e6c57600080fd5b60008b013567ffffffffffffffff811115610e8657600080fd5b610e928d828e01610cea565b9a509a505060208b013567ffffffffffffffff811115610eb157600080fd5b610ebd8d828e01610cea565b985098505060408b013567ffffffffffffffff811115610edc57600080fd5b610ee88d828e01610cea565b965096505060608b013567ffffffffffffffff811115610f0757600080fd5b610f138d828e01610cea565b945094505060808b013567ffffffffffffffff811115610f3257600080fd5b610f3e8d828e01610cea565b92509250509295989b9194979a5092959850565b6000610f5e8383611069565b905092915050565b610f6f816111f8565b82525050565b6000610f80826111a2565b610f8a81856111c5565b935083602082028501610f9c85611192565b8060005b85811015610fd85784840389528151610fb98582610f52565b9450610fc4836111b8565b925060208a01995050600181019050610fa0565b50829750879550505050505092915050565b6000610ff5826111ad565b610fff81856111d6565b935061100f818560208601611234565b61101881611340565b840191505092915050565b60006110306016836111e7565b915061103b82611351565b602082019050919050565b60006110536022836111e7565b915061105e8261137a565b604082019050919050565b600060e0830160008301516110816000860182611121565b5060208301516110946020860182610f66565b50604083015184820360408601526110ac8282610fea565b915050606083015184820360608601526110c68282610fea565b915050608083015184820360808601526110e08282610fea565b91505060a083015184820360a08601526110fa8282610fea565b91505060c083015184820360c08601526111148282610fea565b9150508091505092915050565b61112a8161122a565b82525050565b6000602082019050818103600083015261114a8184610f75565b905092915050565b6000602082019050818103600083015261116b81611023565b9050919050565b6000602082019050818103600083015261118b81611046565b9050919050565b6000819050602082019050919050565b600081519050919050565b600081519050919050565b6000602082019050919050565b600082825260208201905092915050565b600082825260208201905092915050565b600082825260208201905092915050565b60006112038261120a565b9050919050565b600073ffffffffffffffffffffffffffffffffffffffff82169050919050565b6000819050919050565b60005b83811015611252578082015181840152602081019050611237565b83811115611261576000848401525b50505050565b6000600282049050600182168061127f57607f821691505b6020821081141561129357611292611311565b5b50919050565b60006112a48261122a565b91507fffffffffffffffffffffffffffffffffffffffffffffffffffffffffffffffff8214156112d7576112d66112e2565b5b600182019050919050565b7f4e487b7100000000000000000000000000000000000000000000000000000000600052601160045260246000fd5b7f4e487b7100000000000000000000000000000000000000000000000000000000600052602260045260246000fd5b6000601f19601f8301169050919050565b7f4f6e6c792061646d696e732063616e20696e766f6b6500000000000000000000600082015250565b7f546869732077616c6c65742068617320616c7265616479206265656e2061646460008201527f6564000000000000000000000000000000000000000000000000000000000000602082015250565b6113d2816111f8565b81146113dd57600080fd5b5056fea26469706673582212207ed5ef63da36d59a66f9f0cef53017aefeb2f6cd61f31706260d232a48c8909d64736f6c63430008040033",
  "linkReferences": {},
  "deployedLinkReferences": {}
}