{
  "_format": "hh-sol-artifact-1",
  "contractName": "Database",
  "sourceName": "blockchain/contracts/Database.sol",
  "abi": [
    {
      "inputs": [],
      "stateMutability": "nonpayable",
      "type": "constructor"
    },
    {
      "inputs": [
        {
          "internalType": "uint256",
          "name": "",
          "type": "uint256"
        }
      ],
      "name": "allMembers",
      "outputs": [
        {
          "internalType": "uint256",
          "name": "index",
          "type": "uint256"
        },
        {
          "internalType": "uint256",
          "name": "timeEnrolled",
          "type": "uint256"
        },
        {
          "internalType": "address",
          "name": "walletAddress",
          "type": "address"
        },
        {
          "internalType": "string",
          "name": "name",
          "type": "string"
        },
        {
          "internalType": "string",
          "name": "uid",
          "type": "string"
        },
        {
          "internalType": "string",
          "name": "officialEmail",
          "type": "string"
        },
        {
          "internalType": "string",
          "name": "phoneNumber",
          "type": "string"
        },
        {
          "internalType": "string",
          "name": "whatsappNumber",
          "type": "string"
        }
      ],
      "stateMutability": "view",
      "type": "function"
    },
    {
      "inputs": [],
      "name": "counter",
      "outputs": [
        {
          "internalType": "uint256",
          "name": "",
          "type": "uint256"
        }
      ],
      "stateMutability": "view",
      "type": "function"
    },
    {
      "inputs": [
        {
          "internalType": "address",
          "name": "_address",
          "type": "address"
        },
        {
          "internalType": "string",
          "name": "_name",
          "type": "string"
        },
        {
          "internalType": "string",
          "name": "_uid",
          "type": "string"
        },
        {
          "internalType": "string",
          "name": "_officialEmail",
          "type": "string"
        },
        {
          "internalType": "string",
          "name": "_phoneNumber",
          "type": "string"
        },
        {
          "internalType": "string",
          "name": "_whatsappNumber",
          "type": "string"
        }
      ],
      "name": "delegateEnrollMember",
      "outputs": [],
      "stateMutability": "nonpayable",
      "type": "function"
    },
    {
      "inputs": [
        {
          "internalType": "uint256",
          "name": "_id",
          "type": "uint256"
        }
      ],
      "name": "deleteMember",
      "outputs": [],
      "stateMutability": "nonpayable",
      "type": "function"
    },
    {
      "inputs": [
        {
          "internalType": "string",
          "name": "_name",
          "type": "string"
        },
        {
          "internalType": "string",
          "name": "_uid",
          "type": "string"
        },
        {
          "internalType": "string",
          "name": "_officialEmail",
          "type": "string"
        },
        {
          "internalType": "string",
          "name": "_phoneNumber",
          "type": "string"
        },
        {
          "internalType": "string",
          "name": "_whatsappNumber",
          "type": "string"
        }
      ],
      "name": "enrollMember",
      "outputs": [],
      "stateMutability": "nonpayable",
      "type": "function"
    },
    {
      "inputs": [],
      "name": "getAllMembers",
      "outputs": [
        {
          "components": [
            {
              "internalType": "uint256",
              "name": "index",
              "type": "uint256"
            },
            {
              "internalType": "uint256",
              "name": "timeEnrolled",
              "type": "uint256"
            },
            {
              "internalType": "address",
              "name": "walletAddress",
              "type": "address"
            },
            {
              "internalType": "string",
              "name": "name",
              "type": "string"
            },
            {
              "internalType": "string",
              "name": "uid",
              "type": "string"
            },
            {
              "internalType": "string",
              "name": "officialEmail",
              "type": "string"
            },
            {
              "internalType": "string",
              "name": "phoneNumber",
              "type": "string"
            },
            {
              "internalType": "string",
              "name": "whatsappNumber",
              "type": "string"
            }
          ],
          "internalType": "struct MembersDATA.MemberProfile[]",
          "name": "",
          "type": "tuple[]"
        }
      ],
      "stateMutability": "view",
      "type": "function"
    },
    {
      "inputs": [
        {
          "internalType": "address",
          "name": "newAdmin",
          "type": "address"
        }
      ],
      "name": "makeAdmin",
      "outputs": [],
      "stateMutability": "nonpayable",
      "type": "function"
    },
    {
      "inputs": [
        {
          "internalType": "uint256",
          "name": "index",
          "type": "uint256"
        },
        {
          "internalType": "uint256",
          "name": "timestamp",
          "type": "uint256"
        },
        {
          "internalType": "address",
          "name": "walletAddress",
          "type": "address"
        },
        {
          "internalType": "string",
          "name": "_name",
          "type": "string"
        },
        {
          "internalType": "string",
          "name": "_uid",
          "type": "string"
        },
        {
          "internalType": "string",
          "name": "_officialEmail",
          "type": "string"
        },
        {
          "internalType": "string",
          "name": "_phoneNumber",
          "type": "string"
        },
        {
          "internalType": "string",
          "name": "_whatsappNumber",
          "type": "string"
        }
      ],
      "name": "migrationMethod",
      "outputs": [],
      "stateMutability": "nonpayable",
      "type": "function"
    }
  ],
  "bytecode": "608060405234801561001057600080fd5b506000808055338152600360205260409020805460ff19166001179055611b2b8061003c6000396000f3fe608060405234801561001057600080fd5b50600436106100885760003560e01c806388bec9da1161005b57806388bec9da146100e6578063c0329939146100f9578063f65496d01461010c578063fd0717bd1461011f57600080fd5b8063431f23cb1461008d578063472905ca146100a257806361bc221a146100b55780637c0f6b35146100d1575b600080fd5b6100a061009b36600461140d565b610146565b005b6100a06100b0366004611514565b61041e565b6100be60005481565b6040519081526020015b60405180910390f35b6100d961049f565b6040516100c89190611583565b6100a06100f4366004611688565b610804565b6100a0610107366004611744565b61083f565b6100a061011a36600461183a565b610a75565b61013261012d366004611688565b610d00565b6040516100c898979695949392919061192b565b6001600160a01b038b166000908152600260205260409020548b9060ff161561018a5760405162461bcd60e51b8152600401610181906119bc565b60405180910390fd5b3360009081526003602052604090205460ff166101b95760405162461bcd60e51b8152600401610181906119fe565b6001600160a01b038c166000818152600260209081526040808320805460ff19166001908117909155815161010081018352935484524284840152838201949094528051601f8f018390048302810183019091528d815260608301918f908f9081908401838280828437600092019190915250505090825250604080516020601f8e018190048102820181019092528c815291810191908d908d9081908401838280828437600092019190915250505090825250604080516020601f8c018190048102820181019092528a815291810191908b908b9081908401838280828437600092019190915250505090825250604080516020601f8a0181900481028201810190925288815291810191908990899081908401838280828437600092019190915250505090825250604080516020601f88018190048102820181019092528681529181019190879087908190840183828082843760009201829052509390945250508354600180820186559482526020918290208451600890920201908155838201519481019490945560408301516002850180546001600160a01b0319166001600160a01b039092169190911790556060830151805193949361038993506003850192919091019061125e565b50608082015180516103a591600484019160209091019061125e565b5060a082015180516103c191600584019160209091019061125e565b5060c082015180516103dd91600684019160209091019061125e565b5060e082015180516103f991600784019160209091019061125e565b50506000805491508061040b83611a44565b9190505550505050505050505050505050565b3360009081526003602052604090205460ff16151560011461047b5760405162461bcd60e51b81526020600482015260166024820152754f6e6c792041646d696e732063616e20696e766f6b6560501b6044820152606401610181565b6001600160a01b03166000908152600360205260409020805460ff19166001179055565b60606001805480602002602001604051908101604052809291908181526020016000905b828210156107fb5760008481526020908190206040805161010081018252600886029092018054835260018101549383019390935260028301546001600160a01b03169082015260038201805491929160608401919061052290611a5f565b80601f016020809104026020016040519081016040528092919081815260200182805461054e90611a5f565b801561059b5780601f106105705761010080835404028352916020019161059b565b820191906000526020600020905b81548152906001019060200180831161057e57829003601f168201915b505050505081526020016004820180546105b490611a5f565b80601f01602080910402602001604051908101604052809291908181526020018280546105e090611a5f565b801561062d5780601f106106025761010080835404028352916020019161062d565b820191906000526020600020905b81548152906001019060200180831161061057829003601f168201915b5050505050815260200160058201805461064690611a5f565b80601f016020809104026020016040519081016040528092919081815260200182805461067290611a5f565b80156106bf5780601f10610694576101008083540402835291602001916106bf565b820191906000526020600020905b8154815290600101906020018083116106a257829003601f168201915b505050505081526020016006820180546106d890611a5f565b80601f016020809104026020016040519081016040528092919081815260200182805461070490611a5f565b80156107515780601f1061072657610100808354040283529160200191610751565b820191906000526020600020905b81548152906001019060200180831161073457829003601f168201915b5050505050815260200160078201805461076a90611a5f565b80601f016020809104026020016040519081016040528092919081815260200182805461079690611a5f565b80156107e35780601f106107b8576101008083540402835291602001916107e3565b820191906000526020600020905b8154815290600101906020018083116107c657829003601f168201915b505050505081525050815260200190600101906104c3565b50505050905090565b3360009081526003602052604090205460ff166108335760405162461bcd60e51b8152600401610181906119fe565b61083c8161100a565b50565b3360009081526003602052604090205460ff1615156001146108ae5760405162461bcd60e51b815260206004820152602260248201527f4f6e6c792061646d696e732063616e206163636573732074686973206d6574686044820152611bd960f21b6064820152608401610181565b6001600160a01b038087166000818152600260209081526040808320805460ff191660019081179091558151610100810183528e81528084018e8152928101958652606081018c8152608082018c905260a082018b905260c082018a905260e082018990528254808401845592909552805160089092027fb10e2d527612073b26eecdfd717e6a320cf44b4afac2b0732d9fcbe2b7fa0cf6810192835592517fb10e2d527612073b26eecdfd717e6a320cf44b4afac2b0732d9fcbe2b7fa0cf784015594517fb10e2d527612073b26eecdfd717e6a320cf44b4afac2b0732d9fcbe2b7fa0cf883018054919097166001600160a01b031990911617909555915180519394936109e4937fb10e2d527612073b26eecdfd717e6a320cf44b4afac2b0732d9fcbe2b7fa0cf90192919091019061125e565b5060808201518051610a0091600484019160209091019061125e565b5060a08201518051610a1c91600584019160209091019061125e565b5060c08201518051610a3891600684019160209091019061125e565b5060e08201518051610a5491600784019160209091019061125e565b505060008054915080610a6683611a44565b91905055505050505050505050565b3360008181526002602052604090205460ff1615610aa55760405162461bcd60e51b8152600401610181906119bc565b336000818152600260209081526040808320805460ff19166001908117909155815161010081018352935484524284840152838201949094528051601f8f018390048302810183019091528d815260608301918f908f9081908401838280828437600092019190915250505090825250604080516020601f8e018190048102820181019092528c815291810191908d908d9081908401838280828437600092019190915250505090825250604080516020601f8c018190048102820181019092528a815291810191908b908b9081908401838280828437600092019190915250505090825250604080516020601f8a0181900481028201810190925288815291810191908990899081908401838280828437600092019190915250505090825250604080516020601f88018190048102820181019092528681529181019190879087908190840183828082843760009201829052509390945250508354600180820186559482526020918290208451600890920201908155838201519481019490945560408301516002850180546001600160a01b0319166001600160a01b0390921691909117905560608301518051939493610c6c93506003850192919091019061125e565b5060808201518051610c8891600484019160209091019061125e565b5060a08201518051610ca491600584019160209091019061125e565b5060c08201518051610cc091600684019160209091019061125e565b5060e08201518051610cdc91600784019160209091019061125e565b505060008054915080610cee83611a44565b91905055505050505050505050505050565b60018181548110610d1057600080fd5b6000918252602090912060089091020180546001820154600283015460038401805493955091936001600160a01b0390911692909190610d4f90611a5f565b80601f0160208091040260200160405190810160405280929190818152602001828054610d7b90611a5f565b8015610dc85780601f10610d9d57610100808354040283529160200191610dc8565b820191906000526020600020905b815481529060010190602001808311610dab57829003601f168201915b505050505090806004018054610ddd90611a5f565b80601f0160208091040260200160405190810160405280929190818152602001828054610e0990611a5f565b8015610e565780601f10610e2b57610100808354040283529160200191610e56565b820191906000526020600020905b815481529060010190602001808311610e3957829003601f168201915b505050505090806005018054610e6b90611a5f565b80601f0160208091040260200160405190810160405280929190818152602001828054610e9790611a5f565b8015610ee45780601f10610eb957610100808354040283529160200191610ee4565b820191906000526020600020905b815481529060010190602001808311610ec757829003601f168201915b505050505090806006018054610ef990611a5f565b80601f0160208091040260200160405190810160405280929190818152602001828054610f2590611a5f565b8015610f725780601f10610f4757610100808354040283529160200191610f72565b820191906000526020600020905b815481529060010190602001808311610f5557829003601f168201915b505050505090806007018054610f8790611a5f565b80601f0160208091040260200160405190810160405280929190818152602001828054610fb390611a5f565b80156110005780601f10610fd557610100808354040283529160200191611000565b820191906000526020600020905b815481529060010190602001808311610fe357829003601f168201915b5050505050905088565b60015481106110505760405162461bcd60e51b81526020600482015260126024820152711a5b99195e081bdd5d081bd988189bdd5b9960721b6044820152606401610181565b3360009081526003602052604090205460ff1661107f5760405162461bcd60e51b8152600401610181906119fe565b805b6001805461108f9190611a9a565b8110156111ce5760016110a28282611ab1565b815481106110b2576110b2611ac9565b9060005260206000209060080201600182815481106110d3576110d3611ac9565b6000918252602090912082546008909202019081556001808301549082015560028083015490820180546001600160a01b0319166001600160a01b03909216919091179055600380830180549183019161112c90611a5f565b6111379291906112e2565b50600482018160040190805461114c90611a5f565b6111579291906112e2565b50600582018160050190805461116c90611a5f565b6111779291906112e2565b50600682018160060190805461118c90611a5f565b6111979291906112e2565b5060078201816007019080546111ac90611a5f565b6111b79291906112e2565b5090505080806111c690611a44565b915050611081565b5060018054806111e0576111e0611adf565b600082815260208120600860001990930192830201818155600181018290556002810180546001600160a01b03191690559061121f600383018261135d565b61122d60048301600061135d565b61123b60058301600061135d565b61124960068301600061135d565b61125760078301600061135d565b5050905550565b82805461126a90611a5f565b90600052602060002090601f01602090048101928261128c57600085556112d2565b82601f106112a557805160ff19168380011785556112d2565b828001600101855582156112d2579182015b828111156112d25782518255916020019190600101906112b7565b506112de929150611393565b5090565b8280546112ee90611a5f565b90600052602060002090601f01602090048101928261131057600085556112d2565b82601f1061132157805485556112d2565b828001600101855582156112d257600052602060002091601f016020900482015b828111156112d2578254825591600101919060010190611342565b50805461136990611a5f565b6000825580601f10611379575050565b601f01602090049060005260206000209081019061083c91905b5b808211156112de5760008155600101611394565b80356001600160a01b03811681146113bf57600080fd5b919050565b60008083601f8401126113d657600080fd5b50813567ffffffffffffffff8111156113ee57600080fd5b60208301915083602082850101111561140657600080fd5b9250929050565b600080600080600080600080600080600060c08c8e03121561142e57600080fd5b6114378c6113a8565b9a5067ffffffffffffffff8060208e0135111561145357600080fd5b6114638e60208f01358f016113c4565b909b50995060408d013581101561147957600080fd5b6114898e60408f01358f016113c4565b909950975060608d013581101561149f57600080fd5b6114af8e60608f01358f016113c4565b909750955060808d01358110156114c557600080fd5b6114d58e60808f01358f016113c4565b909550935060a08d01358110156114eb57600080fd5b506114fc8d60a08e01358e016113c4565b81935080925050509295989b509295989b9093969950565b60006020828403121561152657600080fd5b61152f826113a8565b9392505050565b6000815180845260005b8181101561155c57602081850181015186830182015201611540565b8181111561156e576000602083870101525b50601f01601f19169290920160200192915050565b60006020808301818452808551808352604092508286019150828160051b87010184880160005b8381101561167a57888303603f190185528151805184528781015188850152868101516001600160a01b03811688860152610100905060608083015182828801526115f783880182611536565b92505050608080830151868303828801526116128382611536565b9250505060a0808301518683038288015261162d8382611536565b9250505060c080830151868303828801526116488382611536565b9250505060e080830151925085820381870152506116668183611536565b9689019694505050908601906001016115aa565b509098975050505050505050565b60006020828403121561169a57600080fd5b5035919050565b634e487b7160e01b600052604160045260246000fd5b600082601f8301126116c857600080fd5b813567ffffffffffffffff808211156116e3576116e36116a1565b604051601f8301601f19908116603f0116810190828211818310171561170b5761170b6116a1565b8160405283815286602085880101111561172457600080fd5b836020870160208301376000602085830101528094505050505092915050565b600080600080600080600080610100898b03121561176157600080fd5b883597506020890135965061177860408a016113a8565b9550606089013567ffffffffffffffff8082111561179557600080fd5b6117a18c838d016116b7565b965060808b01359150808211156117b757600080fd5b6117c38c838d016116b7565b955060a08b01359150808211156117d957600080fd5b6117e58c838d016116b7565b945060c08b01359150808211156117fb57600080fd5b6118078c838d016116b7565b935060e08b013591508082111561181d57600080fd5b5061182a8b828c016116b7565b9150509295985092959890939650565b60008060008060008060008060008060a08b8d03121561185957600080fd5b8a3567ffffffffffffffff8082111561187157600080fd5b61187d8e838f016113c4565b909c509a5060208d013591508082111561189657600080fd5b6118a28e838f016113c4565b909a50985060408d01359150808211156118bb57600080fd5b6118c78e838f016113c4565b909850965060608d01359150808211156118e057600080fd5b6118ec8e838f016113c4565b909650945060808d013591508082111561190557600080fd5b506119128d828e016113c4565b915080935050809150509295989b9194979a5092959850565b888152602081018890526001600160a01b03871660408201526101006060820181905260009061195d83820189611536565b905082810360808401526119718188611536565b905082810360a08401526119858187611536565b905082810360c08401526119998186611536565b905082810360e08401526119ad8185611536565b9b9a5050505050505050505050565b60208082526022908201527f546869732077616c6c65742068617320616c7265616479206265656e20616464604082015261195960f21b606082015260800190565b6020808252601690820152754f6e6c792061646d696e732063616e20696e766f6b6560501b604082015260600190565b634e487b7160e01b600052601160045260246000fd5b6000600019821415611a5857611a58611a2e565b5060010190565b600181811c90821680611a7357607f821691505b60208210811415611a9457634e487b7160e01b600052602260045260246000fd5b50919050565b600082821015611aac57611aac611a2e565b500390565b60008219821115611ac457611ac4611a2e565b500190565b634e487b7160e01b600052603260045260246000fd5b634e487b7160e01b600052603160045260246000fdfea2646970667358221220fec0b4b2ea3c3db57576bc57711e892887d9b4581c3b73fcb78478b805830efe64736f6c63430008090033",
  "deployedBytecode": "60:3071:0:-:0;;;;;;;;;;;;;;;;;;;;;;;;;;;;;;;;;;;;;;;;;;;;;;;;;;;;;;;;;;;;;;;;;;;;;;;;;;;1982:597;;;;;;:::i;:::-;;:::i;:::-;;546:150;;;;;;:::i;:::-;;:::i;309:22::-;;;;;;;;;2519:25:1;;;2507:2;2492:18;309:22:0;;;;;;;;2585:100;;;:::i;:::-;;;;;;;:::i;2691:127::-;;;;;;:::i;:::-;;:::i;1345:631::-;;;;;;:::i;:::-;;:::i;828:511::-;;;;;;:::i;:::-;;:::i;336:33::-;;;;;;:::i;:::-;;:::i;:::-;;;;;;;;;;;;;;:::i;1982:597::-;-1:-1:-1;;;;;753:16:0;;;;;;:10;:16;;;;;;2224:8;;753:16;;752:17;744:64;;;;-1:-1:-1;;;744:64:0;;;;;;;:::i;:::-;;;;;;;;;2257:10:::1;2249:19;::::0;;;:7:::1;:19;::::0;;;;;::::1;;2241:54;;;;-1:-1:-1::0;;;2241:54:0::1;;;;;;;:::i;:::-;-1:-1:-1::0;;;;;2302:20:0;::::1;;::::0;;;:10:::1;:20;::::0;;;;;;;:27;;-1:-1:-1;;2302:27:0::1;2325:4;2302:27:::0;;::::1;::::0;;;2360:190;;2302:27:::1;2360:190:::0;::::1;::::0;;2384:7;;2360:190;;2402:15:::1;2360:190:::0;;::::1;::::0;;;;;;;;;;::::1;::::0;::::1;::::0;;::::1;::::0;::::1;::::0;;;;;;;;;;;;;;2447:5;;;;;;2360:190;::::1;2447:5:::0;;;;2360:190;::::1;;::::0;::::1;::::0;;;;-1:-1:-1;;;2360:190:0;;;-1:-1:-1;2360:190:0::1;::::0;;::::1;;::::0;::::1;::::0;;::::1;::::0;::::1;::::0;;;;;;;;;;;;::::1;::::0;;2463:4;;;;;;2360:190;::::1;2463:4:::0;;;;2360:190;::::1;;::::0;::::1;::::0;;;;-1:-1:-1;;;2360:190:0;;;-1:-1:-1;2360:190:0::1;::::0;;::::1;;::::0;::::1;::::0;;::::1;::::0;::::1;::::0;;;;;;;;;;;;::::1;::::0;;2478:14;;;;;;2360:190;::::1;2478:14:::0;;;;2360:190;::::1;;::::0;::::1;::::0;;;;-1:-1:-1;;;2360:190:0;;;-1:-1:-1;2360:190:0::1;::::0;;::::1;;::::0;::::1;::::0;;::::1;::::0;::::1;::::0;;;;;;;;;;;;::::1;::::0;;2503:12;;;;;;2360:190;::::1;2503:12:::0;;;;2360:190;::::1;;::::0;::::1;::::0;;;;-1:-1:-1;;;2360:190:0;;;-1:-1:-1;2360:190:0::1;::::0;;::::1;;::::0;::::1;::::0;;::::1;::::0;::::1;::::0;;;;;;;;;;;;::::1;::::0;;2526:15;;;;;;2360:190;::::1;2526:15:::0;;;;2360:190;::::1;;::::0;::::1;::::0;;;-1:-1:-1;2360:190:0;;;;-1:-1:-1;;2336:221:0;;::::1;::::0;;::::1;::::0;;;;;::::1;::::0;;;;;;::::1;::::0;;::::1;;::::0;;;;;::::1;::::0;;;::::1;::::0;;;;::::1;::::0;::::1;::::0;::::1;::::0;::::1;::::0;;-1:-1:-1;;;;;;2336:221:0::1;-1:-1:-1::0;;;;;2336:221:0;;::::1;::::0;;;::::1;::::0;;::::1;::::0;::::1;::::0;;;;;;::::1;::::0;-1:-1:-1;2336:221:0::1;::::0;::::1;::::0;;;;::::1;::::0;::::1;:::i;:::-;-1:-1:-1::0;2336:221:0::1;::::0;::::1;::::0;;;::::1;::::0;::::1;::::0;::::1;::::0;::::1;::::0;;::::1;::::0;::::1;:::i;:::-;-1:-1:-1::0;2336:221:0::1;::::0;::::1;::::0;;;::::1;::::0;::::1;::::0;::::1;::::0;::::1;::::0;;::::1;::::0;::::1;:::i;:::-;-1:-1:-1::0;2336:221:0::1;::::0;::::1;::::0;;;::::1;::::0;::::1;::::0;::::1;::::0;::::1;::::0;;::::1;::::0;::::1;:::i;:::-;-1:-1:-1::0;2336:221:0::1;::::0;::::1;::::0;;;::::1;::::0;::::1;::::0;::::1;::::0;::::1;::::0;;::::1;::::0;::::1;:::i;:::-;-1:-1:-1::0;;2564:7:0::1;:9:::0;;;-1:-1:-1;2564:7:0;:9:::1;::::0;::::1;:::i;:::-;;;;;;1982:597:::0;;;;;;;;;;;;:::o;546:150::-;613:10;605:19;;;;:7;:19;;;;;;;;:27;;:19;:27;597:62;;;;-1:-1:-1;;;597:62:0;;11599:2:1;597:62:0;;;11581:21:1;11638:2;11618:18;;;11611:30;-1:-1:-1;;;11657:18:1;;;11650:52;11719:18;;597:62:0;11397:346:1;597:62:0;-1:-1:-1;;;;;666:17:0;;;;;:7;:17;;;;;:24;;-1:-1:-1;;666:24:0;686:4;666:24;;;546:150::o;2585:100::-;2631:22;2669:10;2662:17;;;;;;;;;;;;;;;;;;;;;;;;;;;;;;;;;;;;;;;;;;;;;;;;;;;;;;;;;;;;;;;;;;;;;;;;;;-1:-1:-1;;;;;2662:17:0;;;;;;;;;;;;;;;;;;;;;:::i;:::-;;;;;;;;;;;;;;;;;;;;;;;;;;;;;;;;;:::i;:::-;;;;;;;;;;;;;;;;;;;;;;;;;;;;;;;;;;;;;;;;;;;;;;;;;;;;;;;;;;;;;;;;;;;;;;;;;;;;;:::i;:::-;;;;;;;;;;;;;;;;;;;;;;;;;;;;;;;;;:::i;:::-;;;;;;;;;;;;;;;;;;;;;;;;;;;;;;;;;;;;;;;;;;;;;;;;;;;;;;;;;;;;;;;;;;;;;;;;;;;;;:::i;:::-;;;;;;;;;;;;;;;;;;;;;;;;;;;;;;;;;:::i;:::-;;;;;;;;;;;;;;;;;;;;;;;;;;;;;;;;;;;;;;;;;;;;;;;;;;;;;;;;;;;;;;;;;;;;;;;;;;;;;:::i;:::-;;;;;;;;;;;;;;;;;;;;;;;;;;;;;;;;;:::i;:::-;;;;;;;;;;;;;;;;;;;;;;;;;;;;;;;;;;;;;;;;;;;;;;;;;;;;;;;;;;;;;;;;;;;;;;;;;;;;;:::i;:::-;;;;;;;;;;;;;;;;;;;;;;;;;;;;;;;;;:::i;:::-;;;;;;;;;;;;;;;;;;;;;;;;;;;;;;;;;;;;;;;;;;;;;;;;;;;;;;;;;;;;;;;;;;;;;;;;;;;;;;;;;;;;;;2585:100;:::o;2691:127::-;2756:10;2748:19;;;;:7;:19;;;;;;;;2740:54;;;;-1:-1:-1;;;2740:54:0;;;;;;;:::i;:::-;2801:11;2808:3;2801:6;:11::i;:::-;2691:127;:::o;1345:631::-;1632:10;1624:19;;;;:7;:19;;;;;;;;:27;;:19;:27;1616:74;;;;-1:-1:-1;;;1616:74:0;;12335:2:1;1616:74:0;;;12317:21:1;12374:2;12354:18;;;12347:30;12413:34;12393:18;;;12386:62;-1:-1:-1;;;12464:18:1;;;12457:32;12506:19;;1616:74:0;12133:398:1;1616:74:0;-1:-1:-1;;;;;1697:25:0;;;;;;;:10;:25;;;;;;;;:32;;-1:-1:-1;;1697:32:0;1725:4;1697:32;;;;;;1760:187;;1697:32;1760:187;;;;;;;;;;;;;;;;;;;;;;;;;;;;;;;;;;;;;;;;;;;;;;;;;1736:218;;;;;;;;;;;;;;;;;;;;;;;;;;;;;;;;;;;;;;;;-1:-1:-1;;;;;;1736:218:0;;;;;;;;;;;1760:187;;1736:218;;;;;;;;;;;;:::i;:::-;-1:-1:-1;1736:218:0;;;;;;;;;;;;;;;;;;:::i;:::-;-1:-1:-1;1736:218:0;;;;;;;;;;;;;;;;;;:::i;:::-;-1:-1:-1;1736:218:0;;;;;;;;;;;;;;;;;;:::i;:::-;-1:-1:-1;1736:218:0;;;;;;;;;;;;;;;;;;:::i;:::-;-1:-1:-1;;1961:7:0;:9;;;-1:-1:-1;1961:7:0;:9;;;:::i;:::-;;;;;;1345:631;;;;;;;;:::o;828:511::-;1039:10;753:16;;;;:10;:16;;;;;;;;752:17;744:64;;;;-1:-1:-1;;;744:64:0;;;;;;;:::i;:::-;1069:10:::1;1058:22;::::0;;;:10:::1;:22;::::0;;;;;;;:29;;-1:-1:-1;;1058:29:0::1;1083:4;1058:29:::0;;::::1;::::0;;;1118:192;;1058:29:::1;1118:192:::0;::::1;::::0;;1142:7;;1118:192;;1160:15:::1;1118:192:::0;;::::1;::::0;;;;;;;;;;::::1;::::0;::::1;::::0;;::::1;::::0;::::1;::::0;;;;;;;;;;;;;;1207:5;;;;;;1118:192;::::1;1207:5:::0;;;;1118:192;::::1;;::::0;::::1;::::0;;;;-1:-1:-1;;;1118:192:0;;;-1:-1:-1;1118:192:0::1;::::0;;::::1;;::::0;::::1;::::0;;::::1;::::0;::::1;::::0;;;;;;;;;;;;::::1;::::0;;1223:4;;;;;;1118:192;::::1;1223:4:::0;;;;1118:192;::::1;;::::0;::::1;::::0;;;;-1:-1:-1;;;1118:192:0;;;-1:-1:-1;1118:192:0::1;::::0;;::::1;;::::0;::::1;::::0;;::::1;::::0;::::1;::::0;;;;;;;;;;;;::::1;::::0;;1238:14;;;;;;1118:192;::::1;1238:14:::0;;;;1118:192;::::1;;::::0;::::1;::::0;;;;-1:-1:-1;;;1118:192:0;;;-1:-1:-1;1118:192:0::1;::::0;;::::1;;::::0;::::1;::::0;;::::1;::::0;::::1;::::0;;;;;;;;;;;;::::1;::::0;;1263:12;;;;;;1118:192;::::1;1263:12:::0;;;;1118:192;::::1;;::::0;::::1;::::0;;;;-1:-1:-1;;;1118:192:0;;;-1:-1:-1;1118:192:0::1;::::0;;::::1;;::::0;::::1;::::0;;::::1;::::0;::::1;::::0;;;;;;;;;;;;::::1;::::0;;1286:15;;;;;;1118:192;::::1;1286:15:::0;;;;1118:192;::::1;;::::0;::::1;::::0;;;-1:-1:-1;1118:192:0;;;;-1:-1:-1;;1094:223:0;;::::1;::::0;;::::1;::::0;;;;;::::1;::::0;;;;;;::::1;::::0;;::::1;;::::0;;;;;::::1;::::0;;;::::1;::::0;;;;::::1;::::0;::::1;::::0;::::1;::::0;::::1;::::0;;-1:-1:-1;;;;;;1094:223:0::1;-1:-1:-1::0;;;;;1094:223:0;;::::1;::::0;;;::::1;::::0;;::::1;::::0;::::1;::::0;;;;;;::::1;::::0;-1:-1:-1;1094:223:0::1;::::0;::::1;::::0;;;;::::1;::::0;::::1;:::i;:::-;-1:-1:-1::0;1094:223:0::1;::::0;::::1;::::0;;;::::1;::::0;::::1;::::0;::::1;::::0;::::1;::::0;;::::1;::::0;::::1;:::i;:::-;-1:-1:-1::0;1094:223:0::1;::::0;::::1;::::0;;;::::1;::::0;::::1;::::0;::::1;::::0;::::1;::::0;;::::1;::::0;::::1;:::i;:::-;-1:-1:-1::0;1094:223:0::1;::::0;::::1;::::0;;;::::1;::::0;::::1;::::0;::::1;::::0;::::1;::::0;;::::1;::::0;::::1;:::i;:::-;-1:-1:-1::0;1094:223:0::1;::::0;::::1;::::0;;;::::1;::::0;::::1;::::0;::::1;::::0;::::1;::::0;;::::1;::::0;::::1;:::i;:::-;-1:-1:-1::0;;1324:7:0::1;:9:::0;;;-1:-1:-1;1324:7:0;:9:::1;::::0;::::1;:::i;:::-;;;;;;828:511:::0;;;;;;;;;;;:::o;336:33::-;;;;;;;;;;;;;;;;;;;;;;;;;;;;;;;;;;;;;;;;;;;-1:-1:-1;336:33:0;;-1:-1:-1;;;;;336:33:0;;;;;;;;;;:::i;:::-;;;;;;;;;;;;;;;;;;;;;;;;;;;;;;;;;:::i;:::-;;;;;;;;;;;;;;;;;;;;;;;;;;;;;;;;;;;;;;;;;;;;;;;;;;;;;;;;;;;;;;;;;;;;;;;;;;:::i;:::-;;;;;;;;;;;;;;;;;;;;;;;;;;;;;;;;;:::i;:::-;;;;;;;;;;;;;;;;;;;;;;;;;;;;;;;;;;;;;;;;;;;;;;;;;;;;;;;;;;;;;;;;;;;;;;;;;;:::i;:::-;;;;;;;;;;;;;;;;;;;;;;;;;;;;;;;;;:::i;:::-;;;;;;;;;;;;;;;;;;;;;;;;;;;;;;;;;;;;;;;;;;;;;;;;;;;;;;;;;;;;;;;;;;;;;;;;;;:::i;:::-;;;;;;;;;;;;;;;;;;;;;;;;;;;;;;;;;:::i;:::-;;;;;;;;;;;;;;;;;;;;;;;;;;;;;;;;;;;;;;;;;;;;;;;;;;;;;;;;;;;;;;;;;;;;;;;;;;:::i;:::-;;;;;;;;;;;;;;;;;;;;;;;;;;;;;;;;;:::i;:::-;;;;;;;;;;;;;;;;;;;;;;;;;;;;;;;;;;;;;;;;;;;;;;;;;;;;;;;;;;;;;;;;;;;;:::o;2824:304::-;2886:10;:17;2877:26;;2869:57;;;;-1:-1:-1;;;2869:57:0;;12738:2:1;2869:57:0;;;12720:21:1;12777:2;12757:18;;;12750:30;-1:-1:-1;;;12796:18:1;;;12789:48;12854:18;;2869:57:0;12536:342:1;2869:57:0;2949:10;2941:19;;;;:7;:19;;;;;;;;2933:54;;;;-1:-1:-1;;;2933:54:0;;;;;;;:::i;:::-;3010:6;2996:104;3042:1;3022:17;;:21;;3042:1;3022:21;:::i;:::-;3018:1;:25;2996:104;;;3075:10;3086:5;:1;3075:10;3086:5;:::i;:::-;3075:17;;;;;;;;:::i;:::-;;;;;;;;;;;3059:10;3070:1;3059:13;;;;;;;;:::i;:::-;;;;;;;;;:33;;:13;;;;;:33;;;;;;;;;;;;;;;;;;;;;;-1:-1:-1;;;;;;3059:33:0;-1:-1:-1;;;;;3059:33:0;;;;;;;;;;;;;;;;;;;;;;:::i;:::-;;;;;;:::i;:::-;;;;;;;;;;;;;;:::i;:::-;;;;;;:::i;:::-;;;;;;;;;;;;;;:::i;:::-;;;;;;:::i;:::-;;;;;;;;;;;;;;:::i;:::-;;;;;;:::i;:::-;;;;;;;;;;;;;;:::i;:::-;;;;;;:::i;:::-;;;;;3045:3;;;;;:::i;:::-;;;;2996:104;;;;3106:10;:16;;;;;;;:::i;:::-;;;;;;;;;-1:-1:-1;;3106:16:0;;;;;;;;;;;;;;;;;;;;;-1:-1:-1;;;;;;3106:16:0;;;;;;;;;;:::i;:::-;;;;;;;:::i;:::-;;;;;;;:::i;:::-;;;;;;;:::i;:::-;;;;;;;:::i;:::-;;;;;2824:304;:::o;-1:-1:-1:-;;;;;;;:::i;:::-;;;;;;;;;;;;;;;;;;;;;;;;;;;;;;;;;;;;;;;;;;;;;;;;;;;;;;;;;;;;;;;;;;;;;;;;;;;;;;;;;;;;;;:::i;:::-;;;:::o;:::-;;;;;;;:::i;:::-;;;;;;;;;;;;;;;;;;;;;;;;;;;;;;;;;;;;;;;;;;;;;;;;;;;;;;;;;;;;;;;;;;;;;;;;;;;;;;;;;;;;;;;;;:::i;:::-;;;;;;;;;;;:::o;:::-;;;;;;;;;;;;;;;;;;;;;;;;;;;;;;;;;;14:173:1;82:20;;-1:-1:-1;;;;;131:31:1;;121:42;;111:70;;177:1;174;167:12;111:70;14:173;;;:::o;192:348::-;244:8;254:6;308:3;301:4;293:6;289:17;285:27;275:55;;326:1;323;316:12;275:55;-1:-1:-1;349:20:1;;392:18;381:30;;378:50;;;424:1;421;414:12;378:50;461:4;453:6;449:17;437:29;;513:3;506:4;497:6;489;485:19;481:30;478:39;475:59;;;530:1;527;520:12;475:59;192:348;;;;;:::o;545:1632::-;709:6;717;725;733;741;749;757;765;773;781;789:7;843:3;831:9;822:7;818:23;814:33;811:53;;;860:1;857;850:12;811:53;883:29;902:9;883:29;:::i;:::-;873:39;;931:18;998:2;992;981:9;977:18;964:32;961:40;958:60;;;1014:1;1011;1004:12;958:60;1053:85;1130:7;1123:2;1112:9;1108:18;1095:32;1084:9;1080:48;1053:85;:::i;:::-;1157:8;;-1:-1:-1;1184:8:1;-1:-1:-1;1235:2:1;1220:18;;1207:32;1204:40;-1:-1:-1;1201:60:1;;;1257:1;1254;1247:12;1201:60;1296:85;1373:7;1366:2;1355:9;1351:18;1338:32;1327:9;1323:48;1296:85;:::i;:::-;1400:8;;-1:-1:-1;1427:8:1;-1:-1:-1;1478:2:1;1463:18;;1450:32;1447:40;-1:-1:-1;1444:60:1;;;1500:1;1497;1490:12;1444:60;1539:85;1616:7;1609:2;1598:9;1594:18;1581:32;1570:9;1566:48;1539:85;:::i;:::-;1643:8;;-1:-1:-1;1670:8:1;-1:-1:-1;1721:3:1;1706:19;;1693:33;1690:41;-1:-1:-1;1687:61:1;;;1744:1;1741;1734:12;1687:61;1783:86;1861:7;1853:3;1842:9;1838:19;1825:33;1814:9;1810:49;1783:86;:::i;:::-;1888:8;;-1:-1:-1;1915:8:1;-1:-1:-1;1966:3:1;1951:19;;1938:33;1935:41;-1:-1:-1;1932:61:1;;;1989:1;1986;1979:12;1932:61;;2029:86;2107:7;2099:3;2088:9;2084:19;2071:33;2060:9;2056:49;2029:86;:::i;:::-;2134:8;2124:18;;2162:9;2151:20;;;;545:1632;;;;;;;;;;;;;;:::o;2182:186::-;2241:6;2294:2;2282:9;2273:7;2269:23;2265:32;2262:52;;;2310:1;2307;2300:12;2262:52;2333:29;2352:9;2333:29;:::i;:::-;2323:39;2182:186;-1:-1:-1;;;2182:186:1:o;2664:472::-;2706:3;2744:5;2738:12;2771:6;2766:3;2759:19;2796:1;2806:162;2820:6;2817:1;2814:13;2806:162;;;2882:4;2938:13;;;2934:22;;2928:29;2910:11;;;2906:20;;2899:59;2835:12;2806:162;;;2986:6;2983:1;2980:13;2977:87;;;3052:1;3045:4;3036:6;3031:3;3027:16;3023:27;3016:38;2977:87;-1:-1:-1;3118:2:1;3097:15;-1:-1:-1;;3093:29:1;3084:39;;;;3125:4;3080:50;;2664:472;-1:-1:-1;;2664:472:1:o;3141:2084::-;3341:4;3370:2;3410;3399:9;3395:18;3440:2;3429:9;3422:21;3463:6;3498;3492:13;3529:6;3521;3514:22;3555:2;3545:12;;3588:2;3577:9;3573:18;3566:25;;3650:2;3640:6;3637:1;3633:14;3622:9;3618:30;3614:39;3688:2;3680:6;3676:15;3709:1;3719:1477;3733:6;3730:1;3727:13;3719:1477;;;3798:22;;;-1:-1:-1;;3794:36:1;3782:49;;3854:13;;3924:9;;3909:25;;3977:11;;;3971:18;3954:15;;;3947:43;4029:11;;;4023:18;-1:-1:-1;;;;;2621:31:1;;4087:15;;;2609:44;3890:6;;4054:49;4126:4;4179:2;4175;4171:11;4165:18;4220:2;4215;4207:6;4203:15;4196:27;4250:50;4296:2;4288:6;4284:15;4268:14;4250:50;:::i;:::-;4236:64;;;;4323:4;4376:2;4372;4368:11;4362:18;4429:6;4421;4417:19;4412:2;4404:6;4400:15;4393:44;4464:41;4498:6;4482:14;4464:41;:::i;:::-;4450:55;;;;4528:4;4581:2;4577;4573:11;4567:18;4634:6;4626;4622:19;4617:2;4609:6;4605:15;4598:44;4669:41;4703:6;4687:14;4669:41;:::i;:::-;4655:55;;;;4733:4;4786:2;4782;4778:11;4772:18;4839:6;4831;4827:19;4822:2;4814:6;4810:15;4803:44;4874:41;4908:6;4892:14;4874:41;:::i;:::-;4860:55;;;;4938:4;4991:2;4987;4983:11;4977:18;4955:40;;5044:6;5036;5032:19;5027:2;5019:6;5015:15;5008:44;;5075:41;5109:6;5093:14;5075:41;:::i;:::-;5174:12;;;;5065:51;-1:-1:-1;;;5139:15:1;;;;3755:1;3748:9;3719:1477;;;-1:-1:-1;5213:6:1;;3141:2084;-1:-1:-1;;;;;;;;3141:2084:1:o;5230:180::-;5289:6;5342:2;5330:9;5321:7;5317:23;5313:32;5310:52;;;5358:1;5355;5348:12;5310:52;-1:-1:-1;5381:23:1;;5230:180;-1:-1:-1;5230:180:1:o;5415:127::-;5476:10;5471:3;5467:20;5464:1;5457:31;5507:4;5504:1;5497:15;5531:4;5528:1;5521:15;5547:719;5590:5;5643:3;5636:4;5628:6;5624:17;5620:27;5610:55;;5661:1;5658;5651:12;5610:55;5697:6;5684:20;5723:18;5760:2;5756;5753:10;5750:36;;;5766:18;;:::i;:::-;5841:2;5835:9;5809:2;5895:13;;-1:-1:-1;;5891:22:1;;;5915:2;5887:31;5883:40;5871:53;;;5939:18;;;5959:22;;;5936:46;5933:72;;;5985:18;;:::i;:::-;6025:10;6021:2;6014:22;6060:2;6052:6;6045:18;6106:3;6099:4;6094:2;6086:6;6082:15;6078:26;6075:35;6072:55;;;6123:1;6120;6113:12;6072:55;6187:2;6180:4;6172:6;6168:17;6161:4;6153:6;6149:17;6136:54;6234:1;6227:4;6222:2;6214:6;6210:15;6206:26;6199:37;6254:6;6245:15;;;;;;5547:719;;;;:::o;6271:1358::-;6443:6;6451;6459;6467;6475;6483;6491;6499;6552:3;6540:9;6531:7;6527:23;6523:33;6520:53;;;6569:1;6566;6559:12;6520:53;6605:9;6592:23;6582:33;;6662:2;6651:9;6647:18;6634:32;6624:42;;6685:38;6719:2;6708:9;6704:18;6685:38;:::i;:::-;6675:48;;6774:2;6763:9;6759:18;6746:32;6797:18;6838:2;6830:6;6827:14;6824:34;;;6854:1;6851;6844:12;6824:34;6877:50;6919:7;6910:6;6899:9;6895:22;6877:50;:::i;:::-;6867:60;;6980:3;6969:9;6965:19;6952:33;6936:49;;7010:2;7000:8;6997:16;6994:36;;;7026:1;7023;7016:12;6994:36;7049:52;7093:7;7082:8;7071:9;7067:24;7049:52;:::i;:::-;7039:62;;7154:3;7143:9;7139:19;7126:33;7110:49;;7184:2;7174:8;7171:16;7168:36;;;7200:1;7197;7190:12;7168:36;7223:52;7267:7;7256:8;7245:9;7241:24;7223:52;:::i;:::-;7213:62;;7328:3;7317:9;7313:19;7300:33;7284:49;;7358:2;7348:8;7345:16;7342:36;;;7374:1;7371;7364:12;7342:36;7397:52;7441:7;7430:8;7419:9;7415:24;7397:52;:::i;:::-;7387:62;;7502:3;7491:9;7487:19;7474:33;7458:49;;7532:2;7522:8;7519:16;7516:36;;;7548:1;7545;7538:12;7516:36;;7571:52;7615:7;7604:8;7593:9;7589:24;7571:52;:::i;:::-;7561:62;;;6271:1358;;;;;;;;;;;:::o;7634:1590::-;7789:6;7797;7805;7813;7821;7829;7837;7845;7853;7861;7914:3;7902:9;7893:7;7889:23;7885:33;7882:53;;;7931:1;7928;7921:12;7882:53;7971:9;7958:23;8000:18;8041:2;8033:6;8030:14;8027:34;;;8057:1;8054;8047:12;8027:34;8096:59;8147:7;8138:6;8127:9;8123:22;8096:59;:::i;:::-;8174:8;;-1:-1:-1;8070:85:1;-1:-1:-1;8262:2:1;8247:18;;8234:32;;-1:-1:-1;8278:16:1;;;8275:36;;;8307:1;8304;8297:12;8275:36;8346:61;8399:7;8388:8;8377:9;8373:24;8346:61;:::i;:::-;8426:8;;-1:-1:-1;8320:87:1;-1:-1:-1;8514:2:1;8499:18;;8486:32;;-1:-1:-1;8530:16:1;;;8527:36;;;8559:1;8556;8549:12;8527:36;8598:61;8651:7;8640:8;8629:9;8625:24;8598:61;:::i;:::-;8678:8;;-1:-1:-1;8572:87:1;-1:-1:-1;8766:2:1;8751:18;;8738:32;;-1:-1:-1;8782:16:1;;;8779:36;;;8811:1;8808;8801:12;8779:36;8850:61;8903:7;8892:8;8881:9;8877:24;8850:61;:::i;:::-;8930:8;;-1:-1:-1;8824:87:1;-1:-1:-1;9018:3:1;9003:19;;8990:33;;-1:-1:-1;9035:16:1;;;9032:36;;;9064:1;9061;9054:12;9032:36;;9103:61;9156:7;9145:8;9134:9;9130:24;9103:61;:::i;:::-;9077:87;;9183:8;9173:18;;;9210:8;9200:18;;;7634:1590;;;;;;;;;;;;;:::o;9229:1137::-;9658:25;;;9714:2;9699:18;;9692:34;;;-1:-1:-1;;;;;9762:32:1;;9757:2;9742:18;;9735:60;9646:3;9826:2;9811:18;;9804:30;;;9617:4;;9857:45;9883:18;;;9875:6;9857:45;:::i;:::-;9843:59;;9951:9;9943:6;9939:22;9933:3;9922:9;9918:19;9911:51;9985:33;10011:6;10003;9985:33;:::i;:::-;9971:47;;10067:9;10059:6;10055:22;10049:3;10038:9;10034:19;10027:51;10101:33;10127:6;10119;10101:33;:::i;:::-;10087:47;;10183:9;10175:6;10171:22;10165:3;10154:9;10150:19;10143:51;10217:33;10243:6;10235;10217:33;:::i;:::-;10203:47;;10299:9;10291:6;10287:22;10281:3;10270:9;10266:19;10259:51;10327:33;10353:6;10345;10327:33;:::i;:::-;10319:41;9229:1137;-1:-1:-1;;;;;;;;;;;9229:1137:1:o;10371:398::-;10573:2;10555:21;;;10612:2;10592:18;;;10585:30;10651:34;10646:2;10631:18;;10624:62;-1:-1:-1;;;10717:2:1;10702:18;;10695:32;10759:3;10744:19;;10371:398::o;10774:346::-;10976:2;10958:21;;;11015:2;10995:18;;;10988:30;-1:-1:-1;;;11049:2:1;11034:18;;11027:52;11111:2;11096:18;;10774:346::o;11125:127::-;11186:10;11181:3;11177:20;11174:1;11167:31;11217:4;11214:1;11207:15;11241:4;11238:1;11231:15;11257:135;11296:3;-1:-1:-1;;11317:17:1;;11314:43;;;11337:18;;:::i;:::-;-1:-1:-1;11384:1:1;11373:13;;11257:135::o;11748:380::-;11827:1;11823:12;;;;11870;;;11891:61;;11945:4;11937:6;11933:17;11923:27;;11891:61;11998:2;11990:6;11987:14;11967:18;11964:38;11961:161;;;12044:10;12039:3;12035:20;12032:1;12025:31;12079:4;12076:1;12069:15;12107:4;12104:1;12097:15;11961:161;;11748:380;;;:::o;12883:125::-;12923:4;12951:1;12948;12945:8;12942:34;;;12956:18;;:::i;:::-;-1:-1:-1;12993:9:1;;12883:125::o;13013:128::-;13053:3;13084:1;13080:6;13077:1;13074:13;13071:39;;;13090:18;;:::i;:::-;-1:-1:-1;13126:9:1;;13013:128::o;13146:127::-;13207:10;13202:3;13198:20;13195:1;13188:31;13238:4;13235:1;13228:15;13262:4;13259:1;13252:15;13278:127;13339:10;13334:3;13330:20;13327:1;13320:31;13370:4;13367:1;13360:15;13394:4;13391:1;13384:15",
  "linkReferences": {},
  "deployedLinkReferences": {}
}