{
  "_format": "hh-sol-artifact-1",
  "contractName": "Database",
  "sourceName": "blockchain/contracts/Database.sol",
  "abi": [
    {
      "inputs": [],
      "stateMutability": "nonpayable",
      "type": "constructor"
    },
    {
      "inputs": [
        {
          "internalType": "address",
          "name": "_address",
          "type": "address"
        },
        {
          "internalType": "string",
          "name": "_name",
          "type": "string"
        },
        {
          "internalType": "string",
          "name": "_uid",
          "type": "string"
        },
        {
          "internalType": "string",
          "name": "_officialEmail",
          "type": "string"
        },
        {
          "internalType": "string",
          "name": "_phoneNumber",
          "type": "string"
        },
        {
          "internalType": "string",
          "name": "_whatsappNumber",
          "type": "string"
        }
      ],
      "name": "delegateEnrollMember",
      "outputs": [],
      "stateMutability": "nonpayable",
      "type": "function"
    },
    {
      "inputs": [
        {
          "internalType": "uint256",
          "name": "_id",
          "type": "uint256"
        }
      ],
      "name": "deleteMember",
      "outputs": [],
      "stateMutability": "nonpayable",
      "type": "function"
    },
    {
      "inputs": [
        {
          "internalType": "string",
          "name": "_name",
          "type": "string"
        },
        {
          "internalType": "string",
          "name": "_uid",
          "type": "string"
        },
        {
          "internalType": "string",
          "name": "_officialEmail",
          "type": "string"
        },
        {
          "internalType": "string",
          "name": "_phoneNumber",
          "type": "string"
        },
        {
          "internalType": "string",
          "name": "_whatsappNumber",
          "type": "string"
        }
      ],
      "name": "enrollMember",
      "outputs": [],
      "stateMutability": "nonpayable",
      "type": "function"
    },
    {
      "inputs": [],
      "name": "getAllMembers",
      "outputs": [
        {
          "components": [
            {
              "internalType": "uint256",
              "name": "index",
              "type": "uint256"
            },
            {
              "internalType": "uint256",
              "name": "timeEnrolled",
              "type": "uint256"
            },
            {
              "internalType": "address",
              "name": "walletAddress",
              "type": "address"
            },
            {
              "internalType": "string",
              "name": "name",
              "type": "string"
            },
            {
              "internalType": "string",
              "name": "uid",
              "type": "string"
            },
            {
              "internalType": "string",
              "name": "officialEmail",
              "type": "string"
            },
            {
              "internalType": "string",
              "name": "phoneNumber",
              "type": "string"
            },
            {
              "internalType": "string",
              "name": "whatsappNumber",
              "type": "string"
            }
          ],
          "internalType": "struct Database.MemberProfile[]",
          "name": "",
          "type": "tuple[]"
        }
      ],
      "stateMutability": "view",
      "type": "function"
    }
  ],
  "bytecode": "0x608060405234801561001057600080fd5b50600080819055506001600360003373ffffffffffffffffffffffffffffffffffffffff1673ffffffffffffffffffffffffffffffffffffffff16815260200190815260200160002060006101000a81548160ff021916908315150217905550611ac78061007f6000396000f3fe608060405234801561001057600080fd5b506004361061004c5760003560e01c8063431f23cb146100515780637c0f6b351461006d57806388bec9da1461008b578063f65496d0146100a7575b600080fd5b61006b6004803603810190610066919061129b565b6100c3565b005b610075610519565b60405161008291906116f7565b60405180910390f35b6100a560048036038101906100a091906114b9565b6108bd565b005b6100c160048036038101906100bc91906113b4565b610955565b005b8a600260008273ffffffffffffffffffffffffffffffffffffffff1673ffffffffffffffffffffffffffffffffffffffff16815260200190815260200160002060009054906101000a900460ff1615610151576040517f08c379a000000000000000000000000000000000000000000000000000000000815260040161014890611739565b60405180910390fd5b600360003373ffffffffffffffffffffffffffffffffffffffff1673ffffffffffffffffffffffffffffffffffffffff16815260200190815260200160002060009054906101000a900460ff166101dd576040517f08c379a00000000000000000000000000000000000000000000000000000000081526004016101d490611719565b60405180910390fd5b6001600260008e73ffffffffffffffffffffffffffffffffffffffff1673ffffffffffffffffffffffffffffffffffffffff16815260200190815260200160002060006101000a81548160ff021916908315150217905550600160405180610100016040528060005481526020014281526020018e73ffffffffffffffffffffffffffffffffffffffff1681526020018d8d8080601f016020809104026020016040519081016040528093929190818152602001838380828437600081840152601f19601f8201169050808301925050505050505081526020018b8b8080601f016020809104026020016040519081016040528093929190818152602001838380828437600081840152601f19601f82011690508083019250505050505050815260200189898080601f016020809104026020016040519081016040528093929190818152602001838380828437600081840152601f19601f82011690508083019250505050505050815260200187878080601f016020809104026020016040519081016040528093929190818152602001838380828437600081840152601f19601f82011690508083019250505050505050815260200185858080601f016020809104026020016040519081016040528093929190818152602001838380828437600081840152601f19601f820116905080830192505050505050508152509080600181540180825580915050600190039060005260206000209060080201600090919091909150600082015181600001556020820151816001015560408201518160020160006101000a81548173ffffffffffffffffffffffffffffffffffffffff021916908373ffffffffffffffffffffffffffffffffffffffff160217905550606082015181600301908051906020019061047d9291906110b7565b50608082015181600401908051906020019061049a9291906110b7565b5060a08201518160050190805190602001906104b79291906110b7565b5060c08201518160060190805190602001906104d49291906110b7565b5060e08201518160070190805190602001906104f19291906110b7565b5050506000808154809291906105069061190a565b9190505550505050505050505050505050565b60606001805480602002602001604051908101604052809291908181526020016000905b828210156108b457838290600052602060002090600802016040518061010001604052908160008201548152602001600182015481526020016002820160009054906101000a900473ffffffffffffffffffffffffffffffffffffffff1673ffffffffffffffffffffffffffffffffffffffff1673ffffffffffffffffffffffffffffffffffffffff1681526020016003820180546105db906118d8565b80601f0160208091040260200160405190810160405280929190818152602001828054610607906118d8565b80156106545780601f1061062957610100808354040283529160200191610654565b820191906000526020600020905b81548152906001019060200180831161063757829003601f168201915b5050505050815260200160048201805461066d906118d8565b80601f0160208091040260200160405190810160405280929190818152602001828054610699906118d8565b80156106e65780601f106106bb576101008083540402835291602001916106e6565b820191906000526020600020905b8154815290600101906020018083116106c957829003601f168201915b505050505081526020016005820180546106ff906118d8565b80601f016020809104026020016040519081016040528092919081815260200182805461072b906118d8565b80156107785780601f1061074d57610100808354040283529160200191610778565b820191906000526020600020905b81548152906001019060200180831161075b57829003601f168201915b50505050508152602001600682018054610791906118d8565b80601f01602080910402602001604051908101604052809291908181526020018280546107bd906118d8565b801561080a5780601f106107df5761010080835404028352916020019161080a565b820191906000526020600020905b8154815290600101906020018083116107ed57829003601f168201915b50505050508152602001600782018054610823906118d8565b80601f016020809104026020016040519081016040528092919081815260200182805461084f906118d8565b801561089c5780601f106108715761010080835404028352916020019161089c565b820191906000526020600020905b81548152906001019060200180831161087f57829003601f168201915b5050505050815250508152602001906001019061053d565b50505050905090565b600360003373ffffffffffffffffffffffffffffffffffffffff1673ffffffffffffffffffffffffffffffffffffffff16815260200190815260200160002060009054906101000a900460ff16610949576040517f08c379a000000000000000000000000000000000000000000000000000000000815260040161094090611719565b60405180910390fd5b61095281610d1e565b50565b33600260008273ffffffffffffffffffffffffffffffffffffffff1673ffffffffffffffffffffffffffffffffffffffff16815260200190815260200160002060009054906101000a900460ff16156109e3576040517f08c379a00000000000000000000000000000000000000000000000000000000081526004016109da90611739565b60405180910390fd5b6001600260003373ffffffffffffffffffffffffffffffffffffffff1673ffffffffffffffffffffffffffffffffffffffff16815260200190815260200160002060006101000a81548160ff021916908315150217905550600160405180610100016040528060005481526020014281526020013373ffffffffffffffffffffffffffffffffffffffff1681526020018d8d8080601f016020809104026020016040519081016040528093929190818152602001838380828437600081840152601f19601f8201169050808301925050505050505081526020018b8b8080601f016020809104026020016040519081016040528093929190818152602001838380828437600081840152601f19601f82011690508083019250505050505050815260200189898080601f016020809104026020016040519081016040528093929190818152602001838380828437600081840152601f19601f82011690508083019250505050505050815260200187878080601f016020809104026020016040519081016040528093929190818152602001838380828437600081840152601f19601f82011690508083019250505050505050815260200185858080601f016020809104026020016040519081016040528093929190818152602001838380828437600081840152601f19601f820116905080830192505050505050508152509080600181540180825580915050600190039060005260206000209060080201600090919091909150600082015181600001556020820151816001015560408201518160020160006101000a81548173ffffffffffffffffffffffffffffffffffffffff021916908373ffffffffffffffffffffffffffffffffffffffff1602179055506060820151816003019080519060200190610c839291906110b7565b506080820151816004019080519060200190610ca09291906110b7565b5060a0820151816005019080519060200190610cbd9291906110b7565b5060c0820151816006019080519060200190610cda9291906110b7565b5060e0820151816007019080519060200190610cf79291906110b7565b505050600080815480929190610d0c9061190a565b91905055505050505050505050505050565b6001805490508110610d65576040517f08c379a0000000000000000000000000000000000000000000000000000000008152600401610d5c90611759565b60405180910390fd5b600360003373ffffffffffffffffffffffffffffffffffffffff1673ffffffffffffffffffffffffffffffffffffffff16815260200190815260200160002060009054906101000a900460ff16610df1576040517f08c379a0000000000000000000000000000000000000000000000000000000008152600401610de890611719565b60405180910390fd5b60008190505b60018080549050610e089190611835565b811015610fdb5760018082610e1d91906117df565b81548110610e54577f4e487b7100000000000000000000000000000000000000000000000000000000600052603260045260246000fd5b906000526020600020906008020160018281548110610e9c577f4e487b7100000000000000000000000000000000000000000000000000000000600052603260045260246000fd5b906000526020600020906008020160008201548160000155600182015481600101556002820160009054906101000a900473ffffffffffffffffffffffffffffffffffffffff168160020160006101000a81548173ffffffffffffffffffffffffffffffffffffffff021916908373ffffffffffffffffffffffffffffffffffffffff1602179055506003820181600301908054610f39906118d8565b610f4492919061113d565b506004820181600401908054610f59906118d8565b610f6492919061113d565b506005820181600501908054610f79906118d8565b610f8492919061113d565b506006820181600601908054610f99906118d8565b610fa492919061113d565b506007820181600701908054610fb9906118d8565b610fc492919061113d565b509050508080610fd39061190a565b915050610df7565b506001805480611014577f4e487b7100000000000000000000000000000000000000000000000000000000600052603160045260246000fd5b600190038181906000526020600020906008020160008082016000905560018201600090556002820160006101000a81549073ffffffffffffffffffffffffffffffffffffffff021916905560038201600061107091906111ca565b60048201600061108091906111ca565b60058201600061109091906111ca565b6006820160006110a091906111ca565b6007820160006110b091906111ca565b5050905550565b8280546110c3906118d8565b90600052602060002090601f0160209004810192826110e5576000855561112c565b82601f106110fe57805160ff191683800117855561112c565b8280016001018555821561112c579182015b8281111561112b578251825591602001919060010190611110565b5b509050611139919061120a565b5090565b828054611149906118d8565b90600052602060002090601f01602090048101928261116b57600085556111b9565b82601f1061117c57805485556111b9565b828001600101855582156111b957600052602060002091601f016020900482015b828111156111b857825482559160010191906001019061119d565b5b5090506111c6919061120a565b5090565b5080546111d6906118d8565b6000825580601f106111e85750611207565b601f016020900490600052602060002090810190611206919061120a565b5b50565b5b8082111561122357600081600090555060010161120b565b5090565b60008135905061123681611a63565b92915050565b60008083601f84011261124e57600080fd5b8235905067ffffffffffffffff81111561126757600080fd5b60208301915083600182028301111561127f57600080fd5b9250929050565b60008135905061129581611a7a565b92915050565b600080600080600080600080600080600060c08c8e0312156112bc57600080fd5b60006112ca8e828f01611227565b9b505060208c013567ffffffffffffffff8111156112e757600080fd5b6112f38e828f0161123c565b9a509a505060408c013567ffffffffffffffff81111561131257600080fd5b61131e8e828f0161123c565b985098505060608c013567ffffffffffffffff81111561133d57600080fd5b6113498e828f0161123c565b965096505060808c013567ffffffffffffffff81111561136857600080fd5b6113748e828f0161123c565b945094505060a08c013567ffffffffffffffff81111561139357600080fd5b61139f8e828f0161123c565b92509250509295989b509295989b9093969950565b60008060008060008060008060008060a08b8d0312156113d357600080fd5b60008b013567ffffffffffffffff8111156113ed57600080fd5b6113f98d828e0161123c565b9a509a505060208b013567ffffffffffffffff81111561141857600080fd5b6114248d828e0161123c565b985098505060408b013567ffffffffffffffff81111561144357600080fd5b61144f8d828e0161123c565b965096505060608b013567ffffffffffffffff81111561146e57600080fd5b61147a8d828e0161123c565b945094505060808b013567ffffffffffffffff81111561149957600080fd5b6114a58d828e0161123c565b92509250509295989b9194979a5092959850565b6000602082840312156114cb57600080fd5b60006114d984828501611286565b91505092915050565b60006114ee838361161c565b905092915050565b6114ff81611869565b82525050565b600061151082611789565b61151a81856117ac565b93508360208202850161152c85611779565b8060005b85811015611568578484038952815161154985826114e2565b94506115548361179f565b925060208a01995050600181019050611530565b50829750879550505050505092915050565b600061158582611794565b61158f81856117bd565b935061159f8185602086016118a5565b6115a8816119b1565b840191505092915050565b60006115c06016836117ce565b91506115cb826119c2565b602082019050919050565b60006115e36022836117ce565b91506115ee826119eb565b604082019050919050565b60006116066012836117ce565b915061161182611a3a565b602082019050919050565b60006101008301600083015161163560008601826116e8565b50602083015161164860208601826116e8565b50604083015161165b60408601826114f6565b5060608301518482036060860152611673828261157a565b9150506080830151848203608086015261168d828261157a565b91505060a083015184820360a08601526116a7828261157a565b91505060c083015184820360c08601526116c1828261157a565b91505060e083015184820360e08601526116db828261157a565b9150508091505092915050565b6116f18161189b565b82525050565b600060208201905081810360008301526117118184611505565b905092915050565b60006020820190508181036000830152611732816115b3565b9050919050565b60006020820190508181036000830152611752816115d6565b9050919050565b60006020820190508181036000830152611772816115f9565b9050919050565b6000819050602082019050919050565b600081519050919050565b600081519050919050565b6000602082019050919050565b600082825260208201905092915050565b600082825260208201905092915050565b600082825260208201905092915050565b60006117ea8261189b565b91506117f58361189b565b9250827fffffffffffffffffffffffffffffffffffffffffffffffffffffffffffffffff0382111561182a57611829611953565b5b828201905092915050565b60006118408261189b565b915061184b8361189b565b92508282101561185e5761185d611953565b5b828203905092915050565b60006118748261187b565b9050919050565b600073ffffffffffffffffffffffffffffffffffffffff82169050919050565b6000819050919050565b60005b838110156118c35780820151818401526020810190506118a8565b838111156118d2576000848401525b50505050565b600060028204905060018216806118f057607f821691505b6020821081141561190457611903611982565b5b50919050565b60006119158261189b565b91507fffffffffffffffffffffffffffffffffffffffffffffffffffffffffffffffff82141561194857611947611953565b5b600182019050919050565b7f4e487b7100000000000000000000000000000000000000000000000000000000600052601160045260246000fd5b7f4e487b7100000000000000000000000000000000000000000000000000000000600052602260045260246000fd5b6000601f19601f8301169050919050565b7f4f6e6c792061646d696e732063616e20696e766f6b6500000000000000000000600082015250565b7f546869732077616c6c65742068617320616c7265616479206265656e2061646460008201527f6564000000000000000000000000000000000000000000000000000000000000602082015250565b7f696e646578206f7574206f6620626f756e640000000000000000000000000000600082015250565b611a6c81611869565b8114611a7757600080fd5b50565b611a838161189b565b8114611a8e57600080fd5b5056fea26469706673582212209668fb3aceb3aba645d58e55ef4b8af5d192e7b4e1a5159742358a88fa03a7c364736f6c63430008040033",
  "linkReferences": {},
  "deployedLinkReferences": {}
}